{
  "contractName": "DocumentCertification",
  "abi": [
    {
      "inputs": [],
      "payable": false,
      "stateMutability": "nonpayable",
      "type": "constructor"
    },
    {
      "constant": true,
      "inputs": [],
      "name": "owner",
      "outputs": [
        {
          "internalType": "address payable",
          "name": "",
          "type": "address"
        }
      ],
      "payable": false,
      "stateMutability": "view",
      "type": "function"
    },
    {
      "constant": true,
      "inputs": [],
      "name": "getDocsCount",
      "outputs": [
        {
          "internalType": "uint256",
          "name": "_docsCount",
          "type": "uint256"
        }
      ],
      "payable": false,
      "stateMutability": "view",
      "type": "function"
    },
    {
      "constant": true,
      "inputs": [
        {
          "internalType": "bytes32",
          "name": "_tmpHash",
          "type": "bytes32"
        }
      ],
      "name": "verifyDocument",
      "outputs": [
        {
          "internalType": "string",
          "name": "_nomDoc",
          "type": "string"
        }
      ],
      "payable": false,
      "stateMutability": "view",
      "type": "function"
    },
    {
      "constant": true,
      "inputs": [
        {
          "internalType": "uint256",
          "name": "_docCount",
          "type": "uint256"
        }
      ],
      "name": "getHash",
      "outputs": [
        {
          "internalType": "bytes32",
          "name": "_docHash",
          "type": "bytes32"
        }
      ],
      "payable": false,
      "stateMutability": "view",
      "type": "function"
    },
    {
      "constant": true,
      "inputs": [
        {
          "internalType": "string",
          "name": "_base64",
          "type": "string"
        }
      ],
      "name": "generateHash",
      "outputs": [
        {
          "internalType": "bytes32",
          "name": "_hash",
          "type": "bytes32"
        }
      ],
      "payable": false,
      "stateMutability": "view",
      "type": "function"
    },
    {
      "constant": false,
      "inputs": [
        {
          "internalType": "string",
          "name": "_base64",
          "type": "string"
        },
        {
          "internalType": "string",
          "name": "_nomDoc",
          "type": "string"
        }
      ],
      "name": "authenticateDocument",
      "outputs": [],
      "payable": false,
      "stateMutability": "nonpayable",
      "type": "function"
    }
  ],
  "bytecode": "0x6080604052600060015534801561001557600080fd5b50336000806101000a81548173ffffffffffffffffffffffffffffffffffffffff021916908373ffffffffffffffffffffffffffffffffffffffff16021790555061062a806100656000396000f3fe608060405234801561001057600080fd5b50600436106100625760003560e01c806319362da2146100675780636b2fafa9146101b95780638da5cb5b146101fb5780639e8cb6bd14610245578063b063152a14610263578063fe35089f14610332575b600080fd5b6101b76004803603604081101561007d57600080fd5b810190808035906020019064010000000081111561009a57600080fd5b8201836020820111156100ac57600080fd5b803590602001918460018302840111640100000000831117156100ce57600080fd5b91908080601f016020809104026020016040519081016040528093929190818152602001838380828437600081840152601f19601f8201169050808301925050505050505091929192908035906020019064010000000081111561013157600080fd5b82018360208201111561014357600080fd5b8035906020019184600183028401116401000000008311171561016557600080fd5b91908080601f016020809104026020016040519081016040528093929190818152602001838380828437600081840152601f19601f8201169050808301925050505050505091929192905050506103d9565b005b6101e5600480360360208110156101cf57600080fd5b810190808035906020019092919050505061043e565b6040518082815260200191505060405180910390f35b61020361045b565b604051808273ffffffffffffffffffffffffffffffffffffffff1673ffffffffffffffffffffffffffffffffffffffff16815260200191505060405180910390f35b61024d610480565b6040518082815260200191505060405180910390f35b61031c6004803603602081101561027957600080fd5b810190808035906020019064010000000081111561029657600080fd5b8201836020820111156102a857600080fd5b803590602001918460018302840111640100000000831117156102ca57600080fd5b91908080601f016020809104026020016040519081016040528093929190818152602001838380828437600081840152601f19601f82011690508083019250505050505050919291929050505061048a565b6040518082815260200191505060405180910390f35b61035e6004803603602081101561034857600080fd5b810190808035906020019092919050505061049b565b6040518080602001828103825283818151815260200191508051906020019080838360005b8381101561039e578082015181840152602081019050610383565b50505050905090810190601f1680156103cb5780820380516001836020036101000a031916815260200191505b509250505060405180910390f35b6000828051906020012090508160026000838152602001908152602001600020908051906020019061040c929190610550565b508060036000600154815260200190815260200160002081905550600160008154809291906001019190505550505050565b600060036000838152602001908152602001600020549050919050565b6000809054906101000a900473ffffffffffffffffffffffffffffffffffffffff1681565b6000600154905090565b600081805190602001209050919050565b6060600260008381526020019081526020016000208054600181600116156101000203166002900480601f0160208091040260200160405190810160405280929190818152602001828054600181600116156101000203166002900480156105445780601f1061051957610100808354040283529160200191610544565b820191906000526020600020905b81548152906001019060200180831161052757829003601f168201915b50505050509050919050565b828054600181600116156101000203166002900490600052602060002090601f016020900481019282601f1061059157805160ff19168380011785556105bf565b828001600101855582156105bf579182015b828111156105be5782518255916020019190600101906105a3565b5b5090506105cc91906105d0565b5090565b6105f291905b808211156105ee5760008160009055506001016105d6565b5090565b9056fea265627a7a72315820eb0cdadbf8101be00d65c87d265c5e1168cc8fe21ead241e72e95c8ad677290e64736f6c63430005100032",
  "source": "// SPDX-License-Identifier: MIT\r\npragma solidity >=0.4.21 <0.8.0;\r\n\r\n/** @title DocumentCertification. */\r\ncontract DocumentCertification {\r\n\r\n    /// @dev Owner address\r\n    address payable public owner;\r\n    \r\n    /// @dev Compteur du nombre de documents enregistrés \r\n    uint docsCount = 0;\r\n\r\n    /*\r\n    * Mapping pour des Hash des documents\r\n    * clé : hash du document\r\n    */\r\n    mapping (bytes32 => string) docsHash;\r\n   \r\n    /*\r\n    * Mapping pour retrouver les Hash des documents\r\n    * clé : docsCount du document\r\n    */\r\n    mapping (uint => bytes32) docsHashCount;\r\n\r\n    /// @dev Contract constructor sets the owner\r\n    constructor () public {\r\n        owner = msg.sender;\r\n    }   \r\n    \r\n\r\n    /**\r\n    * Read functions \r\n    */\r\n\r\n    function getDocsCount () public view returns (uint _docsCount) {\r\n        _docsCount = docsCount;\r\n    }\r\n\r\n    function verifyDocument (bytes32 _tmpHash) public view returns (string memory _nomDoc) {\r\n        _nomDoc = docsHash[_tmpHash];\r\n    }\r\n\r\n    function getHash (uint _docCount) public view returns (bytes32 _docHash) {\r\n        _docHash = docsHashCount[_docCount];\r\n    }\r\n\r\n    function generateHash (string memory _base64) public view returns (bytes32 _hash) {\r\n        _hash = keccak256(bytes(_base64));\r\n    }\r\n\r\n                                                                                                                                              \r\n   /**\r\n    * Write functions \r\n    */    \r\n\r\n    function authenticateDocument (string memory _base64, string memory _nomDoc) public {\r\n        bytes32 doc_hash = keccak256(bytes(_base64));\r\n        docsHash[doc_hash] = _nomDoc;\r\n        docsHashCount[docsCount] = doc_hash;\r\n        docsCount++;\r\n    }     \r\n}",
  "sourcePath": "C:/Users/anatereza.mascarenha/OneDrive - BearingPoint GmbH/Desktop/POC_CertificationDocument_v2/contracts/DocumentCertification.sol",
  "compiler": {
    "name": "solc",
    "version": "0.5.16+commit.9c3226ce.Emscripten.clang"
  },
  "schemaVersion": "3.0.22",
  "updatedAt": "2021-05-18T16:18:07.137Z",
  "networkType": "ethereum",
  "devdoc": {
    "methods": {
      "constructor": {
        "details": "Contract constructor sets the owner"
      }
    },
    "title": "DocumentCertification. "
  },
  "userdoc": {
    "methods": {
      "authenticateDocument(string,string)": {
        "notice": "Write functions "
      },
      "getDocsCount()": {
        "notice": "Read functions "
      }
    }
  }
}